:100000000C9403010C942E010C942E010C942E01DF
:100010000C942E010C942E010C942E010C942E01A4
:100020000C942E010C942E010C942E010C942E0194
:100030000C942E010C942E010C942E010C942E0184
:100040000C942E010C942E010C942E010C942E0174
:100050000C942E010C942E010C942E010C94ED06A0
:100060000C942E010C945C030C942E010C942E0124
:100070000C942E010C942E010C942E010C942E0144
:100080000C942E010C942E010C942E010C942E0134
:100090000C949D030C942E010C942E010C942E01B3
:1000A0000C942E010C942E010C942E010C942E0114
:1000B0000C942E010C942E010C942E010C942E0104
:1000C0000C942E010C942E010C942E010C94DE0342
:1000D0000C942E010C942E010C941F040C942E01F0
:1000E0000C942E0100002100240027002A002D007E
:1000F0003000330001010000040107010A01000083
:100100002200250028002B002E00310034000201BF
:100110000000050108010B0100002000230026005B
:1001200029002C002F00320000010000030106010D
:10013000090105050505070508080808020202026D
:100140000A0A080804040404010101010101010173
:100150000303030303030303040707070C0C0C0C3E
:100160000C0C0C0C02020202060606060606060627
:100170000B0B0B0B0B0B0B0B0102102020080810B4
:100180002040102040800201020108040201010207
:1001900004081020408080402010080402018004E0
:1001A000020180402010080402010804020101023B
:1001B0000408102040800102040810204080000044
:1001C000090A02080B0C0D070603040100000000D9
:1001D000000000000000000000000000000000001F
:1001E00000000000000000000000100F0E000000E2
:1001F00000000000000000000000000000000000FF
:1002000000000000180511241FBECFEFD1E2DEBFB1
:10021000CDBF12E0A0E0B2E0E2E2F3E100E00BBF0C
:1002200002C007900D92A634B107D9F71BBE14E0A7
:10023000A6E4B2E001C01D92A43BB107E1F712E0D1
:10024000C6E0D2E004C02297FE010E948B09C430B0
:10025000D107C9F70E9455030C948F090C94000034
:1002600080E694E00E94C904882309F4CCC180E6AA
:1002700094E00E94DD04909347028093460281340B
:10028000910509F076C080E694E060E072E00E949B
:10029000DF0580E694E00E94DD04C09790934B0256
:1002A00080934A0280E694E00E94DD04C097909318
:1002B0004D0280934C0297FF04C010924D021092A1
:1002C0004C0280E694E00E94DD04C09790934F02B8
:1002D00080934E0297FF04C010924F0210924E027C
:1002E00020914A0230914B0284E690E0289FB001B1
:1002F000299F700D389F700D112480914C029091B0
:100300004D029C0153E0220F331F5A95E1F7880FED
:10031000991F280F391F620F731F80914E02909111
:100320004F02680F791F70934902609348028091D1
:100330002E020E94BE07609148027091490280918E
:1003400030020E94BE07609148027091490280917C
:1003500032020E94BE07409148025091490266272E
:1003600057FD6095762F80E694E02AE030E00E9409
:10037000E20680914602909147028234910509F08D
:1003800066C080E694E064E172E00E94DF0580E6EA
:1003900094E00E94DD04C09790934B0280934A0240
:1003A00080E694E00E94DD04C09790934D02809314
:1003B0004C0297FF04C010924D0210924C0280E64E
:1003C00094E00E94DD04C09790934F0280934E0208
:1003D00097FF04C010924F0210924E0220914A02E1
:1003E00030914B0284E690E0289FB001299F700D68
:1003F000389F700D112480914C0290914D029C0108
:10040000B3E0220F331FBA95E1F7880F991F280F29
:10041000391F620F731F80914E0290914F02680F37
:10042000791F7093490260934802809136020E94BE
:10043000BE074091480250914902662757FD6095DA
:10044000762F80E694E02AE030E00E94E206809178
:100450004602909147028334910509F066C080E618
:1004600094E064E172E00E94DF0580E694E00E947F
:10047000DD04C09790934B0280934A0280E694E09B
:100480000E94DD04C09790934D0280934C0297FF29
:1004900004C010924D0210924C0280E694E00E943B
:1004A000DD04C09790934F0280934E0297FF04C0E3
:1004B00010924F0210924E0220914A0230914B024C
:1004C00084E690E0289FB001299F700D389F700D41
:1004D000112480914C0290914D029C01F3E0220F77
:1004E000331FFA95E1F7880F991F280F391F620F04
:1004F000731F80914E0290914F02680F791F709385
:1005000049026093480280913A020E94BE074091DE
:10051000480250914902662757FD6095762F80E684
:1005200094E02AE030E00E94E20680914602909139
:1005300047028434910509F066C080E694E064E1E6
:1005400072E00E94DF0580E694E00E94DD04C0971F
:1005500090934B0280934A0280E694E00E94DD046F
:10056000C09790934D0280934C0297FF04C0109265
:100570004D0210924C0280E694E00E94DD04C09788
:1005800090934F0280934E0297FF04C010924F0247
:1005900010924E0220914A0230914B0284E690E084
:1005A000289FB001299F700D389F700D11248091F4
:1005B0004C0290914D029C0153E0220F331F5A953B
:1005C000E1F7880F991F280F391F620F731F809161
:1005D0004E0290914F02680F791F70934902609309
:1005E000480280913E020E94BE074091480250910D
:1005F0004902662757FD6095762F80E694E02AE051
:1006000030E00E94E206089580E694E040E855E27A
:1006100060E070E00E9460048091280268EC70E065
:100620000E94BE0780912A0268EC70E00E94BE071B
:1006300080912C0268EC70E00E94BE0780912E022F
:1006400060E070E00E94BE078091300260E070E0E0
:100650000E94BE078091320260E070E00E94BE07F7
:100660008091340268EC70E00E94BE0780913602EF
:1006700064E670E00E94BE078091380268EC70E08A
:100680000E94BE0780913A0264E670E00E94BE07B5
:1006900080913C0268EC70E00E94BE0780913E02AF
:1006A00064E670E00E94BE0708950E945D070E9404
:1006B00004030E943001FDCF1F920F920FB60F92DC
:1006C0000BB60F9211242F933F934F935F936F9329
:1006D0007F938F939F93AF93BF93EF93FF9340913B
:1006E000C600E091D002F091D102CF01019660E8FE
:1006F00070E00E9425099C018091D2029091D30262
:100700002817390739F0E05BFD4F40833093D10261
:100710002093D002FF91EF91BF91AF919F918F9164
:100720007F916F915F914F913F912F910F900BBEF1
:100730000F900FBE0F901F9018951F920F920FB63B
:100740000F920BB60F9211242F933F934F935F9309
:100750006F937F938F939F93AF93BF93EF93FF9389
:100760004091CE00E0915403F0915503CF010196E2
:1007700060E870E00E9425099C01809156039091E9
:1007800057032817390739F0EC52FD4F4083309357
:10079000550320935403FF91EF91BF91AF919F9127
:1007A0008F917F916F915F914F913F912F910F901A
:1007B0000BBE0F900FBE0F901F9018951F920F92B7
:1007C0000FB60F920BB60F9211242F933F934F93B6
:1007D0005F936F937F938F939F93AF93BF93EF93A9
:1007E000FF934091D600E091D803F091D903CF0157
:1007F000019660E870E00E9425099C018091DA036F
:100800009091DB032817390739F0E85AFC4F4083F1
:100810003093D9032093D803FF91EF91BF91AF910B
:100820009F918F917F916F915F914F913F912F9108
:100830000F900BBE0F900FBE0F901F9018951F9238
:100840000F920FB60F920BB60F9211242F933F9376
:100850004F935F936F937F938F939F93AF93BF93C8
:10086000EF93FF9340913601E0915C04F0915D04B9
:10087000CF01019660E870E00E9425099C018091FB
:100880005E0490915F042817390739F0E452FC4F59
:10089000408330935D0420935C04FF91EF91BF91FE
:1008A000AF919F918F917F916F915F914F913F9108
:1008B0002F910F900BBE0F900FBE0F901F901895A9
:1008C000AF92BF92CF92DF92EF92FF920F931F935E
:1008D000CF93DF936C017A018B01DC011496AD900C
:1008E000BC901597CB01BA0122E030E040E050E027
:1008F0000E945A09205C3D4B404F5F4FCA01B9012D
:10090000A80197010E945A09C901DA010197A109BA
:10091000B109292F3A2F4B2F552747FD5A9501969C
:10092000A11DB11DE5012883E601EE81FF81815003
:100930008083EA85FB85208141E050E0CA010E8476
:1009400002C0880F991F0A94E2F7282B2083EA85BA
:10095000FB852081CA010F8402C0880F991F0A9469
:10096000E2F7282B2083EA85FB858081088802C076
:10097000440F551F0A94E2F7842B8083DF91CF91B7
:100980001F910F91FF90EF90DF90CF90BF90AF90AD
:100990000895DC011296ED91FC911397E058FF4FFA
:1009A0008191919180589F4F20813181821B930BBF
:1009B00060E870E00E9425090895CF93DF93DC0181
:1009C0001296ED91FC911397EF01CE57DF4F4881BE
:1009D0005981E058FF4F80819181E058F0408417A1
:1009E000950719F42FEF3FEF0CC0E40FF51F20819E
:1009F000CA01019660E870E00E9425099983888306
:100A000030E0C901DF91CF910895FC01A085B18547
:100A100021898C9190E0022E02C0959587950A94C9
:100A2000E2F780FFF6CF0484F585E02D608308951A
:100A300024E432E0309361042093600480E592E086
:100A4000909363048093620485EC90E09093650436
:100A50008093640484EC90E0909367048093660430
:100A600080EC90E0909369048093680481EC90E0BE
:100A700090936B0480936A0486EC90E090936D04ED
:100A800080936C0474E070936E0463E060936F0471
:100A900057E05093700445E0409371043093730421
:100AA0002093720484ED92E0909375048093740413
:100AB0008DEC90E090937704809376048CEC90E03A
:100AC000909379048093780488EC90E090937B0471
:100AD00080937A0489EC90E090937D0480937C0469
:100AE0008EEC90E090937F0480937E04709380045A
:100AF000609381045093820440938304309385046F
:100B00002093840488E593E090938704809386047F
:100B100085ED90E0909389048093880484ED90E0C3
:100B200090938B0480938A0480ED90E090938D04E1
:100B300080938C0481ED90E090938F0480938E04D9
:100B400086ED90E0909391048093900470939204CA
:100B500060939304509394044093950430939704C6
:100B6000209396048CED93E09093990480939804DD
:100B700085E391E090939B0480939A0484E391E051
:100B800090939D0480939C0480E391E090939F0454
:100B900080939E0481E391E09093A1048093A0044C
:100BA00086E391E09093A3048093A2047093A4043D
:100BB0006093A5045093A6044093A70408950F934F
:100BC0001F93CF93DF938C01EB0109C02196D801CD
:100BD000ED91FC910190F081E02DC80109956881AB
:100BE0006623A1F7DF91CF911F910F9108950F9385
:100BF0001F938C01DC01ED91FC910190F081E02DBF
:100C00006DE00995D801ED91FC910190F081E02D06
:100C1000C8016AE009951F910F9108952F923F92A4
:100C20004F925F926F927F928F929F92AF92BF92FC
:100C3000CF92DF92EF92FF920F931F93DF93CF93A8
:100C4000CDB7DEB7A0970FB6F894DEBF0FBECDBF0D
:100C50001C016A017B01411551056105710549F4CB
:100C6000DC01ED91FC910190F081E02D60E30995AC
:100C700054C0882499245401422E55246624772494
:100C800001E010E00C0F1D1F080D191DC701B60172
:100C9000A30192010E943809F80160830894811C25
:100CA000911CA11CB11CC701B601A30192010E94B5
:100CB0003809C901DA016C017D01C114D104E104D4
:100CC000F104F1F681E0E82EF12CEC0EFD1EE80CAB
:100CD000F91C3E010894611C711CD501C4010197E7
:100CE000A109B1096C01C818D90814C0F601EE0DAC
:100CF000FF1D60816A3010F4605D01C0695CD10144
:100D0000ED91FC910190F081E02DC10109950894CD
:100D1000E108F1086E147F0449F7A0960FB6F89425
:100D2000DEBF0FBECDBFCF91DF911F910F91FF901E
:100D3000EF90DF90CF90BF90AF909F908F907F907B
:100D40006F905F904F903F902F900895EF92FF9299
:100D50000F931F93CF93DF93EC017A018B0177FF01
:100D60000FC0E881F9810190F081E02D6DE20995D5
:100D700010950095F094E094E11CF11C011D111DEB
:100D8000CE01B801A7012AE00E940E06DF91CF91A3
:100D90001F910F91FF90EF900895DC01211531050F
:100DA00041F4ED91FC910190F081E02D642F0995C3
:100DB00008952A30310519F40E94A60608950E946C
:100DC0000E0608950F931F938C010E94CD06C80153
:100DD0000E94F7051F910F9108951F920F920FB671
:100DE0000F9211242F938F939F93AF93BF93809172
:100DF000A8049091A904A091AA04B091AB04019613
:100E0000A11DB11D8093A8049093A904A093AA04E6
:100E1000B093AB048091AC049091AD04A091AE046A
:100E2000B091AF048050904CAF4FBF4F8093AC0453
:100E30009093AD04A093AE04B093AF0427C080910B
:100E4000AC049091AD04A091AE04B091AF04805871
:100E50009E43A040B0408093AC049093AD04A09317
:100E6000AE04B093AF048091B0049091B104A0910E
:100E7000B204B091B3040196A11DB11D8093B004DA
:100E80009093B104A093B204B093B3048091AC04E6
:100E90009091AD04A091AE04B091AF0481589E43EF
:100EA000A040B04060F6BF91AF919F918F912F917C
:100EB0000F900FBE0F901F901895789484B58260A4
:100EC00084BD84B5816084BD85B5826085BD85B5EE
:100ED000816085BDEEE6F0E0808181608083E1E89D
:100EE000F0E0808182608083808181608083E0E89F
:100EF000F0E0808181608083E1EBF0E080818460BC
:100F00008083E0EBF0E0808181608083E1E9F0E0C4
:100F1000808182608083808181608083E1EAF0E06B
:100F2000808182608083808181608083E1E2F1E062
:100F3000808182608083808181608083E0E9F0E04D
:100F4000808181608083E0EAF0E08081816080833D
:100F5000E0E2F1E0808181608083EAE7F0E0808177
:100F600084608083808182608083808181608083CF
:100F70008081806880831092C10008951F93CF9371
:100F8000DF93182FEB0161E00E947A08E12FF0E077
:100F9000E254FE4F8491833051F480918000806848
:100FA00080938000D0938900C09388009FC08430D4
:100FB00051F480918000806280938000D0938B00F8
:100FC000C0938A0093C0813041F4209709F487C010
:100FD00084B5806884BDC7BD89C0823041F4209744
:100FE00009F47DC084B5806284BDC8BD7FC08630F1
:100FF00041F48091B00080688093B000C093B3004A
:1010000075C0873041F48091B00080628093B00059
:10101000C093B4006BC0883051F480919000806818
:1010200080939000D0939900C09398005FC089305E
:1010300051F480919000806280939000D0939B0047
:10104000C0939A0053C08A3051F480919000886018
:1010500080939000D0939D00C0939C0047C08B303C
:1010600051F48091A00080688093A000D093A900E3
:10107000C093A8003BC084918C3051F48091A000B3
:1010800080628093A000D093AB00C093AA002EC0D2
:101090008D3051F48091A00088608093A000D0939F
:1010A000AD00C093AC0022C08E3051F4809120017D
:1010B000806880932001D0932901C093280116C035
:1010C0008F3051F480912001806280932001D09371
:1010D0002B01C0932A010AC0C038D1051CF4812F0E
:1010E00060E002C0812F61E00E949A08DF91CF91F9
:1010F0001F910895282F30E0C90188589E4FFC01A8
:1011000094912E5C3E4FF9018491882391F0E82F51
:10111000F0E0EE0FFF1FEC51FF4FA591B491662355
:1011200029F48C91909589238C9308958C91892B27
:101130008C930895482F50E0CA0182549E4FFC01C1
:101140002491CA0188589E4FFC0194914E5C5E4FD9
:10115000FA013491332309F477C0222309F462C0E1
:10116000233021F4809180008F7705C0243031F442
:10117000809180008F7D8093800054C0213019F4CD
:1011800084B58F7704C0223021F484B58F7D84BD6F
:1011900049C0263021F48091B0008F7705C02730F8
:1011A00031F48091B0008F7D8093B0003BC0283037
:1011B00021F4809190008F7705C0293031F480911F
:1011C00090008F7D809390002DC02A3021F4809173
:1011D0009000877FF7CF2B3021F48091A0008F778C
:1011E0000BC02C3021F48091A0008F7D05C02D30E4
:1011F00031F48091A000877F8093A00013C02E302F
:1012000021F4809120018F770BC02F3021F4809141
:1012100020018F7D05C0203129F480912001877F36
:1012200080932001E32FF0E0EE0FFF1FE250FF4F0D
:10123000A591B491662329F48C91909589238C9380
:1012400008958C91892B8C93089597FB092E07267E
:101250000AD077FD04D049D006D000201AF470954A
:1012600061957F4F0895F6F7909581959F4F08956A
:10127000A1E21A2EAA1BBB1BFD010DC0AA1FBB1F9A
:10128000EE1FFF1FA217B307E407F50720F0A21B0C
:10129000B30BE40BF50B661F771F881F991F1A9479
:1012A00069F760957095809590959B01AC01BD01A3
:1012B000CF01089597FB092E05260ED057FD04D0C7
:1012C000D7DF0AD0001C38F4509540953095219511
:1012D0003F4F4F4F5F4F0895F6F79095809570956B
:1012E00061957F4F8F4F9F4F0895AA1BBB1B51E104
:1012F00007C0AA1FBB1FA617B70710F0A61BB70B86
:10130000881F991F5A95A9F780959095BC01CD012A
:101310000895EE0FFF1F0590F491E02D0994F894C5
:02132000FFCFFD
:101322005265636569766564204461746120506F1B
:10133200696E7400466F7277617264202F20426179
:10134200636B77617264730002000300040005009E
:1013520006000700080009000A000B000C000D003F
:061362000000000005057B
:00000001FF
